{
	"contracts/SimpleStorage.sol": {
		"SimpleStorage": {
			"abi": [
				{
					"inputs": [],
					"name": "add",
					"outputs": [
						{
							"internalType": "uint256",
							"name": "",
							"type": "uint256"
						}
					],
					"stateMutability": "pure",
					"type": "function"
				},
				{
					"inputs": [
						{
							"internalType": "string",
							"name": "_name",
							"type": "string"
						},
						{
							"internalType": "uint256",
							"name": "_favoriteNumber",
							"type": "uint256"
						}
					],
					"name": "addPerson",
					"outputs": [],
					"stateMutability": "nonpayable",
					"type": "function"
				},
				{
					"inputs": [
						{
							"internalType": "uint256",
							"name": "",
							"type": "uint256"
						}
					],
					"name": "people",
					"outputs": [
						{
							"internalType": "uint256",
							"name": "favoriteNumber",
							"type": "uint256"
						},
						{
							"internalType": "string",
							"name": "name",
							"type": "string"
						}
					],
					"stateMutability": "view",
					"type": "function"
				},
				{
					"inputs": [],
					"name": "retrieve",
					"outputs": [
						{
							"internalType": "uint256",
							"name": "",
							"type": "uint256"
						}
					],
					"stateMutability": "view",
					"type": "function"
				},
				{
					"inputs": [
						{
							"internalType": "uint256",
							"name": "_favoriteNumber",
							"type": "uint256"
						}
					],
					"name": "store",
					"outputs": [],
					"stateMutability": "nonpayable",
					"type": "function"
				}
			],
			"devdoc": {
				"kind": "dev",
				"methods": {},
				"version": 1
			},
			"evm": {
				"assembly": "    /* \"contracts/SimpleStorage.sol\":309:1623  contract SimpleStorage {... */\n  mstore(0x40, 0x80)\n    /* \"contracts/SimpleStorage.sol\":408:412  true */\n  0x01\n    /* \"contracts/SimpleStorage.sol\":382:412  bool  hasFavoriteNumber = true */\n  0x00\n  dup1\n  0x0100\n  exp\n  dup2\n  sload\n  dup2\n  0xff\n  mul\n  not\n  and\n  swap1\n  dup4\n  iszero\n  iszero\n  mul\n  or\n  swap1\n  sstore\n  pop\n    /* \"contracts/SimpleStorage.sol\":419:456  string favoriteNumberInText =  \"Five\" */\n  mload(0x40)\n  dup1\n  0x40\n  add\n  0x40\n  mstore\n  dup1\n  0x04\n  dup2\n  mstore\n  0x20\n  add\n  0x4669766500000000000000000000000000000000000000000000000000000000\n  dup2\n  mstore\n  pop\n  0x01\n  swap1\n  dup1\n  mload\n  swap1\n  0x20\n  add\n  swap1\n  tag_1\n  swap3\n  swap2\n  swap1\n  tag_2\n  jump\t// in\ntag_1:\n  pop\n    /* \"contracts/SimpleStorage.sol\":485:487  -5 */\n  0xfffffffffffffffffffffffffffffffffffffffffffffffffffffffffffffffb\n    /* \"contracts/SimpleStorage.sol\":463:487  int256  favoriteInt = -5 */\n  0x02\n  sstore\n    /* \"contracts/SimpleStorage.sol\":515:557  0x895Bf621E6B6189d9Bc1912F9571bbB870FD8B3e */\n  0x895bf621e6b6189d9bc1912f9571bbb870fd8b3e\n    /* \"contracts/SimpleStorage.sol\":494:557  address myaddress =  0x895Bf621E6B6189d9Bc1912F9571bbB870FD8B3e */\n  0x03\n  exp(0x0100, 0x00)\n  dup2\n  sload\n  dup2\n  0xffffffffffffffffffffffffffffffffffffffff\n  mul\n  not\n  and\n  swap1\n  dup4\n  0xffffffffffffffffffffffffffffffffffffffff\n  and\n  mul\n  or\n  swap1\n  sstore\n  pop\n    /* \"contracts/SimpleStorage.sol\":564:596  bytes32   favoriteBytes =  \"cat\" */\n  sstore(0x04, 0x6361740000000000000000000000000000000000000000000000000000000000)\n    /* \"contracts/SimpleStorage.sol\":309:1623  contract SimpleStorage {... */\n  callvalue\n  dup1\n  iszero\n  tag_3\n  jumpi\n  0x00\n  dup1\n  revert\ntag_3:\n  pop\n  jump(tag_4)\ntag_2:\n  dup3\n  dup1\n  sload\n  tag_5\n  swap1\n  tag_6\n  jump\t// in\ntag_5:\n  swap1\n  0x00\n  mstore\n  keccak256(0x00, 0x20)\n  swap1\n  0x1f\n  add\n  0x20\n  swap1\n  div\n  dup2\n  add\n  swap3\n  dup3\n  tag_8\n  jumpi\n  0x00\n  dup6\n  sstore\n  jump(tag_7)\ntag_8:\n  dup3\n  0x1f\n  lt\n  tag_9\n  jumpi\n  dup1\n  mload\n  not(0xff)\n  and\n  dup4\n  dup1\n  add\n  or\n  dup6\n  sstore\n  jump(tag_7)\ntag_9:\n  dup3\n  dup1\n  add\n  0x01\n  add\n  dup6\n  sstore\n  dup3\n  iszero\n  tag_7\n  jumpi\n  swap2\n  dup3\n  add\ntag_10:\n  dup3\n  dup2\n  gt\n  iszero\n  tag_11\n  jumpi\n  dup3\n  mload\n  dup3\n  sstore\n  swap2\n  0x20\n  add\n  swap2\n  swap1\n  0x01\n  add\n  swap1\n  jump(tag_10)\ntag_11:\ntag_7:\n  pop\n  swap1\n  pop\n  tag_12\n  swap2\n  swap1\n  tag_13\n  jump\t// in\ntag_12:\n  pop\n  swap1\n  jump\t// out\ntag_13:\ntag_14:\n  dup1\n  dup3\n  gt\n  iszero\n  tag_15\n  jumpi\n  0x00\n  dup2\n  0x00\n  swap1\n  sstore\n  pop\n  0x01\n  add\n  jump(tag_14)\ntag_15:\n  pop\n  swap1\n  jump\t// out\n    /* \"#utility.yul\":7:187   */\ntag_16:\n    /* \"#utility.yul\":55:132   */\n  0x4e487b7100000000000000000000000000000000000000000000000000000000\n    /* \"#utility.yul\":52:53   */\n  0x00\n    /* \"#utility.yul\":45:133   */\n  mstore\n    /* \"#utility.yul\":152:156   */\n  0x22\n    /* \"#utility.yul\":149:150   */\n  0x04\n    /* \"#utility.yul\":142:157   */\n  mstore\n    /* \"#utility.yul\":176:180   */\n  0x24\n    /* \"#utility.yul\":173:174   */\n  0x00\n    /* \"#utility.yul\":166:181   */\n  revert\n    /* \"#utility.yul\":193:513   */\ntag_6:\n    /* \"#utility.yul\":237:243   */\n  0x00\n    /* \"#utility.yul\":274:275   */\n  0x02\n    /* \"#utility.yul\":268:272   */\n  dup3\n    /* \"#utility.yul\":264:276   */\n  div\n    /* \"#utility.yul\":254:276   */\n  swap1\n  pop\n    /* \"#utility.yul\":321:322   */\n  0x01\n    /* \"#utility.yul\":315:319   */\n  dup3\n    /* \"#utility.yul\":311:323   */\n  and\n    /* \"#utility.yul\":342:360   */\n  dup1\n    /* \"#utility.yul\":332:413   */\n  tag_20\n  jumpi\n    /* \"#utility.yul\":398:402   */\n  0x7f\n    /* \"#utility.yul\":390:396   */\n  dup3\n    /* \"#utility.yul\":386:403   */\n  and\n    /* \"#utility.yul\":376:403   */\n  swap2\n  pop\n    /* \"#utility.yul\":332:413   */\ntag_20:\n    /* \"#utility.yul\":460:462   */\n  0x20\n    /* \"#utility.yul\":452:458   */\n  dup3\n    /* \"#utility.yul\":449:463   */\n  lt\n    /* \"#utility.yul\":429:447   */\n  dup2\n    /* \"#utility.yul\":426:464   */\n  eq\n    /* \"#utility.yul\":423:507   */\n  iszero\n  tag_21\n  jumpi\n    /* \"#utility.yul\":479:497   */\n  tag_22\n  tag_16\n  jump\t// in\ntag_22:\n    /* \"#utility.yul\":423:507   */\ntag_21:\n    /* \"#utility.yul\":244:513   */\n  pop\n    /* \"#utility.yul\":193:513   */\n  swap2\n  swap1\n  pop\n  jump\t// out\n    /* \"contracts/SimpleStorage.sol\":309:1623  contract SimpleStorage {... */\ntag_4:\n  dataSize(sub_0)\n  dup1\n  dataOffset(sub_0)\n  0x00\n  codecopy\n  0x00\n  return\nstop\n\nsub_0: assembly {\n        /* \"contracts/SimpleStorage.sol\":309:1623  contract SimpleStorage {... */\n      mstore(0x40, 0x80)\n      callvalue\n      dup1\n      iszero\n      tag_1\n      jumpi\n      0x00\n      dup1\n      revert\n    tag_1:\n      pop\n      jumpi(tag_2, lt(calldatasize, 0x04))\n      shr(0xe0, calldataload(0x00))\n      dup1\n      0x2e64cec1\n      eq\n      tag_3\n      jumpi\n      dup1\n      0x4f2be91f\n      eq\n      tag_4\n      jumpi\n      dup1\n      0x6057361d\n      eq\n      tag_5\n      jumpi\n      dup1\n      0x6f760f41\n      eq\n      tag_6\n      jumpi\n      dup1\n      0x9e7a13ad\n      eq\n      tag_7\n      jumpi\n    tag_2:\n      0x00\n      dup1\n      revert\n        /* \"contracts/SimpleStorage.sol\":1015:1113  function  retrieve() public view  returns(uint256){... */\n    tag_3:\n      tag_8\n      tag_9\n      jump\t// in\n    tag_8:\n      mload(0x40)\n      tag_10\n      swap2\n      swap1\n      tag_11\n      jump\t// in\n    tag_10:\n      mload(0x40)\n      dup1\n      swap2\n      sub\n      swap1\n      return\n        /* \"contracts/SimpleStorage.sol\":1123:1205  function add() public pure returns(uint256){... */\n    tag_4:\n      tag_12\n      tag_13\n      jump\t// in\n    tag_12:\n      mload(0x40)\n      tag_14\n      swap2\n      swap1\n      tag_11\n      jump\t// in\n    tag_14:\n      mload(0x40)\n      dup1\n      swap2\n      sub\n      swap1\n      return\n        /* \"contracts/SimpleStorage.sol\":753:885  function store(uint256 _favoriteNumber) public {... */\n    tag_5:\n      tag_15\n      0x04\n      dup1\n      calldatasize\n      sub\n      dup2\n      add\n      swap1\n      tag_16\n      swap2\n      swap1\n      tag_17\n      jump\t// in\n    tag_16:\n      tag_18\n      jump\t// in\n    tag_15:\n      stop\n        /* \"contracts/SimpleStorage.sol\":1429:1620  function addPerson(string memory _name, uint256 _favoriteNumber) public {... */\n    tag_6:\n      tag_19\n      0x04\n      dup1\n      calldatasize\n      sub\n      dup2\n      add\n      swap1\n      tag_20\n      swap2\n      swap1\n      tag_21\n      jump\t// in\n    tag_20:\n      tag_22\n      jump\t// in\n    tag_19:\n      stop\n        /* \"contracts/SimpleStorage.sol\":1316:1338  People[] public people */\n    tag_7:\n      tag_23\n      0x04\n      dup1\n      calldatasize\n      sub\n      dup2\n      add\n      swap1\n      tag_24\n      swap2\n      swap1\n      tag_17\n      jump\t// in\n    tag_24:\n      tag_25\n      jump\t// in\n    tag_23:\n      mload(0x40)\n      tag_26\n      swap3\n      swap2\n      swap1\n      tag_27\n      jump\t// in\n    tag_26:\n      mload(0x40)\n      dup1\n      swap2\n      sub\n      swap1\n      return\n        /* \"contracts/SimpleStorage.sol\":1015:1113  function  retrieve() public view  returns(uint256){... */\n    tag_9:\n        /* \"contracts/SimpleStorage.sol\":1057:1064  uint256 */\n      0x00\n        /* \"contracts/SimpleStorage.sol\":1087:1101  favoriteNumber */\n      sload(0x05)\n        /* \"contracts/SimpleStorage.sol\":1080:1101  return favoriteNumber */\n      swap1\n      pop\n        /* \"contracts/SimpleStorage.sol\":1015:1113  function  retrieve() public view  returns(uint256){... */\n      swap1\n      jump\t// out\n        /* \"contracts/SimpleStorage.sol\":1123:1205  function add() public pure returns(uint256){... */\n    tag_13:\n        /* \"contracts/SimpleStorage.sol\":1158:1165  uint256 */\n      0x00\n        /* \"contracts/SimpleStorage.sol\":1189:1192  1+1 */\n      0x02\n        /* \"contracts/SimpleStorage.sol\":1181:1193  return (1+1) */\n      swap1\n      pop\n        /* \"contracts/SimpleStorage.sol\":1123:1205  function add() public pure returns(uint256){... */\n      swap1\n      jump\t// out\n        /* \"contracts/SimpleStorage.sol\":753:885  function store(uint256 _favoriteNumber) public {... */\n    tag_18:\n        /* \"contracts/SimpleStorage.sol\":829:844  _favoriteNumber */\n      dup1\n        /* \"contracts/SimpleStorage.sol\":811:825  favoriteNumber */\n      0x05\n        /* \"contracts/SimpleStorage.sol\":811:844  favoriteNumber =  _favoriteNumber */\n      dup2\n      swap1\n      sstore\n      pop\n        /* \"contracts/SimpleStorage.sol\":855:870  uint256 testVar */\n      0x00\n        /* \"contracts/SimpleStorage.sol\":874:875  5 */\n      0x05\n        /* \"contracts/SimpleStorage.sol\":855:875  uint256 testVar =  5 */\n      swap1\n      pop\n        /* \"contracts/SimpleStorage.sol\":800:885  {... */\n      pop\n        /* \"contracts/SimpleStorage.sol\":753:885  function store(uint256 _favoriteNumber) public {... */\n      pop\n      jump\t// out\n        /* \"contracts/SimpleStorage.sol\":1429:1620  function addPerson(string memory _name, uint256 _favoriteNumber) public {... */\n    tag_22:\n        /* \"contracts/SimpleStorage.sol\":1516:1539  People memory newPerson */\n      0x00\n        /* \"contracts/SimpleStorage.sol\":1542:1571  People(_favoriteNumber,_name) */\n      mload(0x40)\n      dup1\n      0x40\n      add\n      0x40\n      mstore\n      dup1\n        /* \"contracts/SimpleStorage.sol\":1549:1564  _favoriteNumber */\n      dup4\n        /* \"contracts/SimpleStorage.sol\":1542:1571  People(_favoriteNumber,_name) */\n      dup2\n      mstore\n      0x20\n      add\n        /* \"contracts/SimpleStorage.sol\":1565:1570  _name */\n      dup5\n        /* \"contracts/SimpleStorage.sol\":1542:1571  People(_favoriteNumber,_name) */\n      dup2\n      mstore\n      pop\n        /* \"contracts/SimpleStorage.sol\":1516:1571  People memory newPerson = People(_favoriteNumber,_name) */\n      swap1\n      pop\n        /* \"contracts/SimpleStorage.sol\":1586:1592  people */\n      0x06\n        /* \"contracts/SimpleStorage.sol\":1598:1607  newPerson */\n      dup2\n        /* \"contracts/SimpleStorage.sol\":1586:1608  people.push(newPerson) */\n      swap1\n      dup1\n      0x01\n      dup2\n      sload\n      add\n      dup1\n      dup3\n      sstore\n      dup1\n      swap2\n      pop\n      pop\n      0x01\n      swap1\n      sub\n      swap1\n      0x00\n      mstore\n      keccak256(0x00, 0x20)\n      swap1\n      0x02\n      mul\n      add\n      0x00\n      swap1\n      swap2\n      swap1\n      swap2\n      swap1\n      swap2\n      pop\n      0x00\n      dup3\n      add\n      mload\n      dup2\n      0x00\n      add\n      sstore\n      0x20\n      dup3\n      add\n      mload\n      dup2\n      0x01\n      add\n      swap1\n      dup1\n      mload\n      swap1\n      0x20\n      add\n      swap1\n      tag_33\n      swap3\n      swap2\n      swap1\n      tag_34\n      jump\t// in\n    tag_33:\n      pop\n      pop\n      pop\n        /* \"contracts/SimpleStorage.sol\":1501:1620  {... */\n      pop\n        /* \"contracts/SimpleStorage.sol\":1429:1620  function addPerson(string memory _name, uint256 _favoriteNumber) public {... */\n      pop\n      pop\n      jump\t// out\n        /* \"contracts/SimpleStorage.sol\":1316:1338  People[] public people */\n    tag_25:\n      0x06\n      dup2\n      dup2\n      sload\n      dup2\n      lt\n      tag_35\n      jumpi\n      0x00\n      dup1\n      revert\n    tag_35:\n      swap1\n      0x00\n      mstore\n      keccak256(0x00, 0x20)\n      swap1\n      0x02\n      mul\n      add\n      0x00\n      swap2\n      pop\n      swap1\n      pop\n      dup1\n      0x00\n      add\n      sload\n      swap1\n      dup1\n      0x01\n      add\n      dup1\n      sload\n      tag_37\n      swap1\n      tag_38\n      jump\t// in\n    tag_37:\n      dup1\n      0x1f\n      add\n      0x20\n      dup1\n      swap2\n      div\n      mul\n      0x20\n      add\n      mload(0x40)\n      swap1\n      dup2\n      add\n      0x40\n      mstore\n      dup1\n      swap3\n      swap2\n      swap1\n      dup2\n      dup2\n      mstore\n      0x20\n      add\n      dup3\n      dup1\n      sload\n      tag_39\n      swap1\n      tag_38\n      jump\t// in\n    tag_39:\n      dup1\n      iszero\n      tag_40\n      jumpi\n      dup1\n      0x1f\n      lt\n      tag_41\n      jumpi\n      0x0100\n      dup1\n      dup4\n      sload\n      div\n      mul\n      dup4\n      mstore\n      swap2\n      0x20\n      add\n      swap2\n      jump(tag_40)\n    tag_41:\n      dup3\n      add\n      swap2\n      swap1\n      0x00\n      mstore\n      keccak256(0x00, 0x20)\n      swap1\n    tag_42:\n      dup2\n      sload\n      dup2\n      mstore\n      swap1\n      0x01\n      add\n      swap1\n      0x20\n      add\n      dup1\n      dup4\n      gt\n      tag_42\n      jumpi\n      dup3\n      swap1\n      sub\n      0x1f\n      and\n      dup3\n      add\n      swap2\n    tag_40:\n      pop\n      pop\n      pop\n      pop\n      pop\n      swap1\n      pop\n      dup3\n      jump\t// out\n    tag_34:\n      dup3\n      dup1\n      sload\n      tag_43\n      swap1\n      tag_38\n      jump\t// in\n    tag_43:\n      swap1\n      0x00\n      mstore\n      keccak256(0x00, 0x20)\n      swap1\n      0x1f\n      add\n      0x20\n      swap1\n      div\n      dup2\n      add\n      swap3\n      dup3\n      tag_45\n      jumpi\n      0x00\n      dup6\n      sstore\n      jump(tag_44)\n    tag_45:\n      dup3\n      0x1f\n      lt\n      tag_46\n      jumpi\n      dup1\n      mload\n      not(0xff)\n      and\n      dup4\n      dup1\n      add\n      or\n      dup6\n      sstore\n      jump(tag_44)\n    tag_46:\n      dup3\n      dup1\n      add\n      0x01\n      add\n      dup6\n      sstore\n      dup3\n      iszero\n      tag_44\n      jumpi\n      swap2\n      dup3\n      add\n    tag_47:\n      dup3\n      dup2\n      gt\n      iszero\n      tag_48\n      jumpi\n      dup3\n      mload\n      dup3\n      sstore\n      swap2\n      0x20\n      add\n      swap2\n      swap1\n      0x01\n      add\n      swap1\n      jump(tag_47)\n    tag_48:\n    tag_44:\n      pop\n      swap1\n      pop\n      tag_49\n      swap2\n      swap1\n      tag_50\n      jump\t// in\n    tag_49:\n      pop\n      swap1\n      jump\t// out\n    tag_50:\n    tag_51:\n      dup1\n      dup3\n      gt\n      iszero\n      tag_52\n      jumpi\n      0x00\n      dup2\n      0x00\n      swap1\n      sstore\n      pop\n      0x01\n      add\n      jump(tag_51)\n    tag_52:\n      pop\n      swap1\n      jump\t// out\n        /* \"#utility.yul\":7:84   */\n    tag_53:\n        /* \"#utility.yul\":44:51   */\n      0x00\n        /* \"#utility.yul\":73:78   */\n      dup2\n        /* \"#utility.yul\":62:78   */\n      swap1\n      pop\n        /* \"#utility.yul\":7:84   */\n      swap2\n      swap1\n      pop\n      jump\t// out\n        /* \"#utility.yul\":90:208   */\n    tag_54:\n        /* \"#utility.yul\":177:201   */\n      tag_78\n        /* \"#utility.yul\":195:200   */\n      dup2\n        /* \"#utility.yul\":177:201   */\n      tag_53\n      jump\t// in\n    tag_78:\n        /* \"#utility.yul\":172:175   */\n      dup3\n        /* \"#utility.yul\":165:202   */\n      mstore\n        /* \"#utility.yul\":90:208   */\n      pop\n      pop\n      jump\t// out\n        /* \"#utility.yul\":214:436   */\n    tag_11:\n        /* \"#utility.yul\":307:311   */\n      0x00\n        /* \"#utility.yul\":345:347   */\n      0x20\n        /* \"#utility.yul\":334:343   */\n      dup3\n        /* \"#utility.yul\":330:348   */\n      add\n        /* \"#utility.yul\":322:348   */\n      swap1\n      pop\n        /* \"#utility.yul\":358:429   */\n      tag_80\n        /* \"#utility.yul\":426:427   */\n      0x00\n        /* \"#utility.yul\":415:424   */\n      dup4\n        /* \"#utility.yul\":411:428   */\n      add\n        /* \"#utility.yul\":402:408   */\n      dup5\n        /* \"#utility.yul\":358:429   */\n      tag_54\n      jump\t// in\n    tag_80:\n        /* \"#utility.yul\":214:436   */\n      swap3\n      swap2\n      pop\n      pop\n      jump\t// out\n        /* \"#utility.yul\":442:517   */\n    tag_55:\n        /* \"#utility.yul\":475:481   */\n      0x00\n        /* \"#utility.yul\":508:510   */\n      0x40\n        /* \"#utility.yul\":502:511   */\n      mload\n        /* \"#utility.yul\":492:511   */\n      swap1\n      pop\n        /* \"#utility.yul\":442:517   */\n      swap1\n      jump\t// out\n        /* \"#utility.yul\":523:640   */\n    tag_56:\n        /* \"#utility.yul\":632:633   */\n      0x00\n        /* \"#utility.yul\":629:630   */\n      dup1\n        /* \"#utility.yul\":622:634   */\n      revert\n        /* \"#utility.yul\":646:763   */\n    tag_57:\n        /* \"#utility.yul\":755:756   */\n      0x00\n        /* \"#utility.yul\":752:753   */\n      dup1\n        /* \"#utility.yul\":745:757   */\n      revert\n        /* \"#utility.yul\":769:891   */\n    tag_58:\n        /* \"#utility.yul\":842:866   */\n      tag_85\n        /* \"#utility.yul\":860:865   */\n      dup2\n        /* \"#utility.yul\":842:866   */\n      tag_53\n      jump\t// in\n    tag_85:\n        /* \"#utility.yul\":835:840   */\n      dup2\n        /* \"#utility.yul\":832:867   */\n      eq\n        /* \"#utility.yul\":822:885   */\n      tag_86\n      jumpi\n        /* \"#utility.yul\":881:882   */\n      0x00\n        /* \"#utility.yul\":878:879   */\n      dup1\n        /* \"#utility.yul\":871:883   */\n      revert\n        /* \"#utility.yul\":822:885   */\n    tag_86:\n        /* \"#utility.yul\":769:891   */\n      pop\n      jump\t// out\n        /* \"#utility.yul\":897:1036   */\n    tag_59:\n        /* \"#utility.yul\":943:948   */\n      0x00\n        /* \"#utility.yul\":981:987   */\n      dup2\n        /* \"#utility.yul\":968:988   */\n      calldataload\n        /* \"#utility.yul\":959:988   */\n      swap1\n      pop\n        /* \"#utility.yul\":997:1030   */\n      tag_88\n        /* \"#utility.yul\":1024:1029   */\n      dup2\n        /* \"#utility.yul\":997:1030   */\n      tag_58\n      jump\t// in\n    tag_88:\n        /* \"#utility.yul\":897:1036   */\n      swap3\n      swap2\n      pop\n      pop\n      jump\t// out\n        /* \"#utility.yul\":1042:1371   */\n    tag_17:\n        /* \"#utility.yul\":1101:1107   */\n      0x00\n        /* \"#utility.yul\":1150:1152   */\n      0x20\n        /* \"#utility.yul\":1138:1147   */\n      dup3\n        /* \"#utility.yul\":1129:1136   */\n      dup5\n        /* \"#utility.yul\":1125:1148   */\n      sub\n        /* \"#utility.yul\":1121:1153   */\n      slt\n        /* \"#utility.yul\":1118:1237   */\n      iszero\n      tag_90\n      jumpi\n        /* \"#utility.yul\":1156:1235   */\n      tag_91\n      tag_56\n      jump\t// in\n    tag_91:\n        /* \"#utility.yul\":1118:1237   */\n    tag_90:\n        /* \"#utility.yul\":1276:1277   */\n      0x00\n        /* \"#utility.yul\":1301:1354   */\n      tag_92\n        /* \"#utility.yul\":1346:1353   */\n      dup5\n        /* \"#utility.yul\":1337:1343   */\n      dup3\n        /* \"#utility.yul\":1326:1335   */\n      dup6\n        /* \"#utility.yul\":1322:1344   */\n      add\n        /* \"#utility.yul\":1301:1354   */\n      tag_59\n      jump\t// in\n    tag_92:\n        /* \"#utility.yul\":1291:1354   */\n      swap2\n      pop\n        /* \"#utility.yul\":1247:1364   */\n      pop\n        /* \"#utility.yul\":1042:1371   */\n      swap3\n      swap2\n      pop\n      pop\n      jump\t// out\n        /* \"#utility.yul\":1377:1494   */\n    tag_60:\n        /* \"#utility.yul\":1486:1487   */\n      0x00\n        /* \"#utility.yul\":1483:1484   */\n      dup1\n        /* \"#utility.yul\":1476:1488   */\n      revert\n        /* \"#utility.yul\":1500:1617   */\n    tag_61:\n        /* \"#utility.yul\":1609:1610   */\n      0x00\n        /* \"#utility.yul\":1606:1607   */\n      dup1\n        /* \"#utility.yul\":1599:1611   */\n      revert\n        /* \"#utility.yul\":1623:1725   */\n    tag_62:\n        /* \"#utility.yul\":1664:1670   */\n      0x00\n        /* \"#utility.yul\":1715:1717   */\n      0x1f\n        /* \"#utility.yul\":1711:1718   */\n      not\n        /* \"#utility.yul\":1706:1708   */\n      0x1f\n        /* \"#utility.yul\":1699:1704   */\n      dup4\n        /* \"#utility.yul\":1695:1709   */\n      add\n        /* \"#utility.yul\":1691:1719   */\n      and\n        /* \"#utility.yul\":1681:1719   */\n      swap1\n      pop\n        /* \"#utility.yul\":1623:1725   */\n      swap2\n      swap1\n      pop\n      jump\t// out\n        /* \"#utility.yul\":1731:1911   */\n    tag_63:\n        /* \"#utility.yul\":1779:1856   */\n      0x4e487b7100000000000000000000000000000000000000000000000000000000\n        /* \"#utility.yul\":1776:1777   */\n      0x00\n        /* \"#utility.yul\":1769:1857   */\n      mstore\n        /* \"#utility.yul\":1876:1880   */\n      0x41\n        /* \"#utility.yul\":1873:1874   */\n      0x04\n        /* \"#utility.yul\":1866:1881   */\n      mstore\n        /* \"#utility.yul\":1900:1904   */\n      0x24\n        /* \"#utility.yul\":1897:1898   */\n      0x00\n        /* \"#utility.yul\":1890:1905   */\n      revert\n        /* \"#utility.yul\":1917:2198   */\n    tag_64:\n        /* \"#utility.yul\":2000:2027   */\n      tag_98\n        /* \"#utility.yul\":2022:2026   */\n      dup3\n        /* \"#utility.yul\":2000:2027   */\n      tag_62\n      jump\t// in\n    tag_98:\n        /* \"#utility.yul\":1992:1998   */\n      dup2\n        /* \"#utility.yul\":1988:2028   */\n      add\n        /* \"#utility.yul\":2130:2136   */\n      dup2\n        /* \"#utility.yul\":2118:2128   */\n      dup2\n        /* \"#utility.yul\":2115:2137   */\n      lt\n        /* \"#utility.yul\":2094:2112   */\n      0xffffffffffffffff\n        /* \"#utility.yul\":2082:2092   */\n      dup3\n        /* \"#utility.yul\":2079:2113   */\n      gt\n        /* \"#utility.yul\":2076:2138   */\n      or\n        /* \"#utility.yul\":2073:2161   */\n      iszero\n      tag_99\n      jumpi\n        /* \"#utility.yul\":2141:2159   */\n      tag_100\n      tag_63\n      jump\t// in\n    tag_100:\n        /* \"#utility.yul\":2073:2161   */\n    tag_99:\n        /* \"#utility.yul\":2181:2191   */\n      dup1\n        /* \"#utility.yul\":2177:2179   */\n      0x40\n        /* \"#utility.yul\":2170:2192   */\n      mstore\n        /* \"#utility.yul\":1960:2198   */\n      pop\n        /* \"#utility.yul\":1917:2198   */\n      pop\n      pop\n      jump\t// out\n        /* \"#utility.yul\":2204:2333   */\n    tag_65:\n        /* \"#utility.yul\":2238:2244   */\n      0x00\n        /* \"#utility.yul\":2265:2285   */\n      tag_102\n      tag_55\n      jump\t// in\n    tag_102:\n        /* \"#utility.yul\":2255:2285   */\n      swap1\n      pop\n        /* \"#utility.yul\":2294:2327   */\n      tag_103\n        /* \"#utility.yul\":2322:2326   */\n      dup3\n        /* \"#utility.yul\":2314:2320   */\n      dup3\n        /* \"#utility.yul\":2294:2327   */\n      tag_64\n      jump\t// in\n    tag_103:\n        /* \"#utility.yul\":2204:2333   */\n      swap2\n      swap1\n      pop\n      jump\t// out\n        /* \"#utility.yul\":2339:2647   */\n    tag_66:\n        /* \"#utility.yul\":2401:2405   */\n      0x00\n        /* \"#utility.yul\":2491:2509   */\n      0xffffffffffffffff\n        /* \"#utility.yul\":2483:2489   */\n      dup3\n        /* \"#utility.yul\":2480:2510   */\n      gt\n        /* \"#utility.yul\":2477:2533   */\n      iszero\n      tag_105\n      jumpi\n        /* \"#utility.yul\":2513:2531   */\n      tag_106\n      tag_63\n      jump\t// in\n    tag_106:\n        /* \"#utility.yul\":2477:2533   */\n    tag_105:\n        /* \"#utility.yul\":2551:2580   */\n      tag_107\n        /* \"#utility.yul\":2573:2579   */\n      dup3\n        /* \"#utility.yul\":2551:2580   */\n      tag_62\n      jump\t// in\n    tag_107:\n        /* \"#utility.yul\":2543:2580   */\n      swap1\n      pop\n        /* \"#utility.yul\":2635:2639   */\n      0x20\n        /* \"#utility.yul\":2629:2633   */\n      dup2\n        /* \"#utility.yul\":2625:2640   */\n      add\n        /* \"#utility.yul\":2617:2640   */\n      swap1\n      pop\n        /* \"#utility.yul\":2339:2647   */\n      swap2\n      swap1\n      pop\n      jump\t// out\n        /* \"#utility.yul\":2653:2807   */\n    tag_67:\n        /* \"#utility.yul\":2737:2743   */\n      dup3\n        /* \"#utility.yul\":2732:2735   */\n      dup2\n        /* \"#utility.yul\":2727:2730   */\n      dup4\n        /* \"#utility.yul\":2714:2744   */\n      calldatacopy\n        /* \"#utility.yul\":2799:2800   */\n      0x00\n        /* \"#utility.yul\":2790:2796   */\n      dup4\n        /* \"#utility.yul\":2785:2788   */\n      dup4\n        /* \"#utility.yul\":2781:2797   */\n      add\n        /* \"#utility.yul\":2774:2801   */\n      mstore\n        /* \"#utility.yul\":2653:2807   */\n      pop\n      pop\n      pop\n      jump\t// out\n        /* \"#utility.yul\":2813:3225   */\n    tag_68:\n        /* \"#utility.yul\":2891:2896   */\n      0x00\n        /* \"#utility.yul\":2916:2982   */\n      tag_110\n        /* \"#utility.yul\":2932:2981   */\n      tag_111\n        /* \"#utility.yul\":2974:2980   */\n      dup5\n        /* \"#utility.yul\":2932:2981   */\n      tag_66\n      jump\t// in\n    tag_111:\n        /* \"#utility.yul\":2916:2982   */\n      tag_65\n      jump\t// in\n    tag_110:\n        /* \"#utility.yul\":2907:2982   */\n      swap1\n      pop\n        /* \"#utility.yul\":3005:3011   */\n      dup3\n        /* \"#utility.yul\":2998:3003   */\n      dup2\n        /* \"#utility.yul\":2991:3012   */\n      mstore\n        /* \"#utility.yul\":3043:3047   */\n      0x20\n        /* \"#utility.yul\":3036:3041   */\n      dup2\n        /* \"#utility.yul\":3032:3048   */\n      add\n        /* \"#utility.yul\":3081:3084   */\n      dup5\n        /* \"#utility.yul\":3072:3078   */\n      dup5\n        /* \"#utility.yul\":3067:3070   */\n      dup5\n        /* \"#utility.yul\":3063:3079   */\n      add\n        /* \"#utility.yul\":3060:3085   */\n      gt\n        /* \"#utility.yul\":3057:3169   */\n      iszero\n      tag_112\n      jumpi\n        /* \"#utility.yul\":3088:3167   */\n      tag_113\n      tag_61\n      jump\t// in\n    tag_113:\n        /* \"#utility.yul\":3057:3169   */\n    tag_112:\n        /* \"#utility.yul\":3178:3219   */\n      tag_114\n        /* \"#utility.yul\":3212:3218   */\n      dup5\n        /* \"#utility.yul\":3207:3210   */\n      dup3\n        /* \"#utility.yul\":3202:3205   */\n      dup6\n        /* \"#utility.yul\":3178:3219   */\n      tag_67\n      jump\t// in\n    tag_114:\n        /* \"#utility.yul\":2897:3225   */\n      pop\n        /* \"#utility.yul\":2813:3225   */\n      swap4\n      swap3\n      pop\n      pop\n      pop\n      jump\t// out\n        /* \"#utility.yul\":3245:3585   */\n    tag_69:\n        /* \"#utility.yul\":3301:3306   */\n      0x00\n        /* \"#utility.yul\":3350:3353   */\n      dup3\n        /* \"#utility.yul\":3343:3347   */\n      0x1f\n        /* \"#utility.yul\":3335:3341   */\n      dup4\n        /* \"#utility.yul\":3331:3348   */\n      add\n        /* \"#utility.yul\":3327:3354   */\n      slt\n        /* \"#utility.yul\":3317:3439   */\n      tag_116\n      jumpi\n        /* \"#utility.yul\":3358:3437   */\n      tag_117\n      tag_60\n      jump\t// in\n    tag_117:\n        /* \"#utility.yul\":3317:3439   */\n    tag_116:\n        /* \"#utility.yul\":3475:3481   */\n      dup2\n        /* \"#utility.yul\":3462:3482   */\n      calldataload\n        /* \"#utility.yul\":3500:3579   */\n      tag_118\n        /* \"#utility.yul\":3575:3578   */\n      dup5\n        /* \"#utility.yul\":3567:3573   */\n      dup3\n        /* \"#utility.yul\":3560:3564   */\n      0x20\n        /* \"#utility.yul\":3552:3558   */\n      dup7\n        /* \"#utility.yul\":3548:3565   */\n      add\n        /* \"#utility.yul\":3500:3579   */\n      tag_68\n      jump\t// in\n    tag_118:\n        /* \"#utility.yul\":3491:3579   */\n      swap2\n      pop\n        /* \"#utility.yul\":3307:3585   */\n      pop\n        /* \"#utility.yul\":3245:3585   */\n      swap3\n      swap2\n      pop\n      pop\n      jump\t// out\n        /* \"#utility.yul\":3591:4245   */\n    tag_21:\n        /* \"#utility.yul\":3669:3675   */\n      0x00\n        /* \"#utility.yul\":3677:3683   */\n      dup1\n        /* \"#utility.yul\":3726:3728   */\n      0x40\n        /* \"#utility.yul\":3714:3723   */\n      dup4\n        /* \"#utility.yul\":3705:3712   */\n      dup6\n        /* \"#utility.yul\":3701:3724   */\n      sub\n        /* \"#utility.yul\":3697:3729   */\n      slt\n        /* \"#utility.yul\":3694:3813   */\n      iszero\n      tag_120\n      jumpi\n        /* \"#utility.yul\":3732:3811   */\n      tag_121\n      tag_56\n      jump\t// in\n    tag_121:\n        /* \"#utility.yul\":3694:3813   */\n    tag_120:\n        /* \"#utility.yul\":3880:3881   */\n      0x00\n        /* \"#utility.yul\":3869:3878   */\n      dup4\n        /* \"#utility.yul\":3865:3882   */\n      add\n        /* \"#utility.yul\":3852:3883   */\n      calldataload\n        /* \"#utility.yul\":3910:3928   */\n      0xffffffffffffffff\n        /* \"#utility.yul\":3902:3908   */\n      dup2\n        /* \"#utility.yul\":3899:3929   */\n      gt\n        /* \"#utility.yul\":3896:4013   */\n      iszero\n      tag_122\n      jumpi\n        /* \"#utility.yul\":3932:4011   */\n      tag_123\n      tag_57\n      jump\t// in\n    tag_123:\n        /* \"#utility.yul\":3896:4013   */\n    tag_122:\n        /* \"#utility.yul\":4037:4100   */\n      tag_124\n        /* \"#utility.yul\":4092:4099   */\n      dup6\n        /* \"#utility.yul\":4083:4089   */\n      dup3\n        /* \"#utility.yul\":4072:4081   */\n      dup7\n        /* \"#utility.yul\":4068:4090   */\n      add\n        /* \"#utility.yul\":4037:4100   */\n      tag_69\n      jump\t// in\n    tag_124:\n        /* \"#utility.yul\":4027:4100   */\n      swap3\n      pop\n        /* \"#utility.yul\":3823:4110   */\n      pop\n        /* \"#utility.yul\":4149:4151   */\n      0x20\n        /* \"#utility.yul\":4175:4228   */\n      tag_125\n        /* \"#utility.yul\":4220:4227   */\n      dup6\n        /* \"#utility.yul\":4211:4217   */\n      dup3\n        /* \"#utility.yul\":4200:4209   */\n      dup7\n        /* \"#utility.yul\":4196:4218   */\n      add\n        /* \"#utility.yul\":4175:4228   */\n      tag_59\n      jump\t// in\n    tag_125:\n        /* \"#utility.yul\":4165:4228   */\n      swap2\n      pop\n        /* \"#utility.yul\":4120:4238   */\n      pop\n        /* \"#utility.yul\":3591:4245   */\n      swap3\n      pop\n      swap3\n      swap1\n      pop\n      jump\t// out\n        /* \"#utility.yul\":4251:4350   */\n    tag_70:\n        /* \"#utility.yul\":4303:4309   */\n      0x00\n        /* \"#utility.yul\":4337:4342   */\n      dup2\n        /* \"#utility.yul\":4331:4343   */\n      mload\n        /* \"#utility.yul\":4321:4343   */\n      swap1\n      pop\n        /* \"#utility.yul\":4251:4350   */\n      swap2\n      swap1\n      pop\n      jump\t// out\n        /* \"#utility.yul\":4356:4525   */\n    tag_71:\n        /* \"#utility.yul\":4440:4451   */\n      0x00\n        /* \"#utility.yul\":4474:4480   */\n      dup3\n        /* \"#utility.yul\":4469:4472   */\n      dup3\n        /* \"#utility.yul\":4462:4481   */\n      mstore\n        /* \"#utility.yul\":4514:4518   */\n      0x20\n        /* \"#utility.yul\":4509:4512   */\n      dup3\n        /* \"#utility.yul\":4505:4519   */\n      add\n        /* \"#utility.yul\":4490:4519   */\n      swap1\n      pop\n        /* \"#utility.yul\":4356:4525   */\n      swap3\n      swap2\n      pop\n      pop\n      jump\t// out\n        /* \"#utility.yul\":4531:4838   */\n    tag_72:\n        /* \"#utility.yul\":4599:4600   */\n      0x00\n        /* \"#utility.yul\":4609:4722   */\n    tag_129:\n        /* \"#utility.yul\":4623:4629   */\n      dup4\n        /* \"#utility.yul\":4620:4621   */\n      dup2\n        /* \"#utility.yul\":4617:4630   */\n      lt\n        /* \"#utility.yul\":4609:4722   */\n      iszero\n      tag_131\n      jumpi\n        /* \"#utility.yul\":4708:4709   */\n      dup1\n        /* \"#utility.yul\":4703:4706   */\n      dup3\n        /* \"#utility.yul\":4699:4710   */\n      add\n        /* \"#utility.yul\":4693:4711   */\n      mload\n        /* \"#utility.yul\":4689:4690   */\n      dup2\n        /* \"#utility.yul\":4684:4687   */\n      dup5\n        /* \"#utility.yul\":4680:4691   */\n      add\n        /* \"#utility.yul\":4673:4712   */\n      mstore\n        /* \"#utility.yul\":4645:4647   */\n      0x20\n        /* \"#utility.yul\":4642:4643   */\n      dup2\n        /* \"#utility.yul\":4638:4648   */\n      add\n        /* \"#utility.yul\":4633:4648   */\n      swap1\n      pop\n        /* \"#utility.yul\":4609:4722   */\n      jump(tag_129)\n    tag_131:\n        /* \"#utility.yul\":4740:4746   */\n      dup4\n        /* \"#utility.yul\":4737:4738   */\n      dup2\n        /* \"#utility.yul\":4734:4747   */\n      gt\n        /* \"#utility.yul\":4731:4832   */\n      iszero\n      tag_132\n      jumpi\n        /* \"#utility.yul\":4820:4821   */\n      0x00\n        /* \"#utility.yul\":4811:4817   */\n      dup5\n        /* \"#utility.yul\":4806:4809   */\n      dup5\n        /* \"#utility.yul\":4802:4818   */\n      add\n        /* \"#utility.yul\":4795:4822   */\n      mstore\n        /* \"#utility.yul\":4731:4832   */\n    tag_132:\n        /* \"#utility.yul\":4580:4838   */\n      pop\n        /* \"#utility.yul\":4531:4838   */\n      pop\n      pop\n      pop\n      jump\t// out\n        /* \"#utility.yul\":4844:5208   */\n    tag_73:\n        /* \"#utility.yul\":4932:4935   */\n      0x00\n        /* \"#utility.yul\":4960:4999   */\n      tag_134\n        /* \"#utility.yul\":4993:4998   */\n      dup3\n        /* \"#utility.yul\":4960:4999   */\n      tag_70\n      jump\t// in\n    tag_134:\n        /* \"#utility.yul\":5015:5086   */\n      tag_135\n        /* \"#utility.yul\":5079:5085   */\n      dup2\n        /* \"#utility.yul\":5074:5077   */\n      dup6\n        /* \"#utility.yul\":5015:5086   */\n      tag_71\n      jump\t// in\n    tag_135:\n        /* \"#utility.yul\":5008:5086   */\n      swap4\n      pop\n        /* \"#utility.yul\":5095:5147   */\n      tag_136\n        /* \"#utility.yul\":5140:5146   */\n      dup2\n        /* \"#utility.yul\":5135:5138   */\n      dup6\n        /* \"#utility.yul\":5128:5132   */\n      0x20\n        /* \"#utility.yul\":5121:5126   */\n      dup7\n        /* \"#utility.yul\":5117:5133   */\n      add\n        /* \"#utility.yul\":5095:5147   */\n      tag_72\n      jump\t// in\n    tag_136:\n        /* \"#utility.yul\":5172:5201   */\n      tag_137\n        /* \"#utility.yul\":5194:5200   */\n      dup2\n        /* \"#utility.yul\":5172:5201   */\n      tag_62\n      jump\t// in\n    tag_137:\n        /* \"#utility.yul\":5167:5170   */\n      dup5\n        /* \"#utility.yul\":5163:5202   */\n      add\n        /* \"#utility.yul\":5156:5202   */\n      swap2\n      pop\n        /* \"#utility.yul\":4936:5208   */\n      pop\n        /* \"#utility.yul\":4844:5208   */\n      swap3\n      swap2\n      pop\n      pop\n      jump\t// out\n        /* \"#utility.yul\":5214:5637   */\n    tag_27:\n        /* \"#utility.yul\":5355:5359   */\n      0x00\n        /* \"#utility.yul\":5393:5395   */\n      0x40\n        /* \"#utility.yul\":5382:5391   */\n      dup3\n        /* \"#utility.yul\":5378:5396   */\n      add\n        /* \"#utility.yul\":5370:5396   */\n      swap1\n      pop\n        /* \"#utility.yul\":5406:5477   */\n      tag_139\n        /* \"#utility.yul\":5474:5475   */\n      0x00\n        /* \"#utility.yul\":5463:5472   */\n      dup4\n        /* \"#utility.yul\":5459:5476   */\n      add\n        /* \"#utility.yul\":5450:5456   */\n      dup6\n        /* \"#utility.yul\":5406:5477   */\n      tag_54\n      jump\t// in\n    tag_139:\n        /* \"#utility.yul\":5524:5533   */\n      dup2\n        /* \"#utility.yul\":5518:5522   */\n      dup2\n        /* \"#utility.yul\":5514:5534   */\n      sub\n        /* \"#utility.yul\":5509:5511   */\n      0x20\n        /* \"#utility.yul\":5498:5507   */\n      dup4\n        /* \"#utility.yul\":5494:5512   */\n      add\n        /* \"#utility.yul\":5487:5535   */\n      mstore\n        /* \"#utility.yul\":5552:5630   */\n      tag_140\n        /* \"#utility.yul\":5625:5629   */\n      dup2\n        /* \"#utility.yul\":5616:5622   */\n      dup5\n        /* \"#utility.yul\":5552:5630   */\n      tag_73\n      jump\t// in\n    tag_140:\n        /* \"#utility.yul\":5544:5630   */\n      swap1\n      pop\n        /* \"#utility.yul\":5214:5637   */\n      swap4\n      swap3\n      pop\n      pop\n      pop\n      jump\t// out\n        /* \"#utility.yul\":5643:5823   */\n    tag_74:\n        /* \"#utility.yul\":5691:5768   */\n      0x4e487b7100000000000000000000000000000000000000000000000000000000\n        /* \"#utility.yul\":5688:5689   */\n      0x00\n        /* \"#utility.yul\":5681:5769   */\n      mstore\n        /* \"#utility.yul\":5788:5792   */\n      0x22\n        /* \"#utility.yul\":5785:5786   */\n      0x04\n        /* \"#utility.yul\":5778:5793   */\n      mstore\n        /* \"#utility.yul\":5812:5816   */\n      0x24\n        /* \"#utility.yul\":5809:5810   */\n      0x00\n        /* \"#utility.yul\":5802:5817   */\n      revert\n        /* \"#utility.yul\":5829:6149   */\n    tag_38:\n        /* \"#utility.yul\":5873:5879   */\n      0x00\n        /* \"#utility.yul\":5910:5911   */\n      0x02\n        /* \"#utility.yul\":5904:5908   */\n      dup3\n        /* \"#utility.yul\":5900:5912   */\n      div\n        /* \"#utility.yul\":5890:5912   */\n      swap1\n      pop\n        /* \"#utility.yul\":5957:5958   */\n      0x01\n        /* \"#utility.yul\":5951:5955   */\n      dup3\n        /* \"#utility.yul\":5947:5959   */\n      and\n        /* \"#utility.yul\":5978:5996   */\n      dup1\n        /* \"#utility.yul\":5968:6049   */\n      tag_143\n      jumpi\n        /* \"#utility.yul\":6034:6038   */\n      0x7f\n        /* \"#utility.yul\":6026:6032   */\n      dup3\n        /* \"#utility.yul\":6022:6039   */\n      and\n        /* \"#utility.yul\":6012:6039   */\n      swap2\n      pop\n        /* \"#utility.yul\":5968:6049   */\n    tag_143:\n        /* \"#utility.yul\":6096:6098   */\n      0x20\n        /* \"#utility.yul\":6088:6094   */\n      dup3\n        /* \"#utility.yul\":6085:6099   */\n      lt\n        /* \"#utility.yul\":6065:6083   */\n      dup2\n        /* \"#utility.yul\":6062:6100   */\n      eq\n        /* \"#utility.yul\":6059:6143   */\n      iszero\n      tag_144\n      jumpi\n        /* \"#utility.yul\":6115:6133   */\n      tag_145\n      tag_74\n      jump\t// in\n    tag_145:\n        /* \"#utility.yul\":6059:6143   */\n    tag_144:\n        /* \"#utility.yul\":5880:6149   */\n      pop\n        /* \"#utility.yul\":5829:6149   */\n      swap2\n      swap1\n      pop\n      jump\t// out\n\n    auxdata: 0xa26469706673582212203aa8e35622b2405d0006030bd9db800d33225c252d2ae9a0b483349bbc9eee0364736f6c63430008080033\n}\n",
				"bytecode": {
					"linkReferences": {},
					"object": "608060405260016000806101000a81548160ff0219169083151502179055506040518060400160405280600481526020017f466976650000000000000000000000000000000000000000000000000000000081525060019080519060200190610069929190610119565b507ffffffffffffffffffffffffffffffffffffffffffffffffffffffffffffffffb60025573895bf621e6b6189d9bc1912f9571bbb870fd8b3e600360006101000a81548173ffffffffffffffffffffffffffffffffffffffff021916908373ffffffffffffffffffffffffffffffffffffffff1602179055507f636174000000000000000000000000000000000000000000000000000000000060045534801561011357600080fd5b5061021d565b828054610125906101eb565b90600052602060002090601f016020900481019282610147576000855561018e565b82601f1061016057805160ff191683800117855561018e565b8280016001018555821561018e579182015b8281111561018d578251825591602001919060010190610172565b5b50905061019b919061019f565b5090565b5b808211156101b85760008160009055506001016101a0565b5090565b7f4e487b7100000000000000000000000000000000000000000000000000000000600052602260045260246000fd5b6000600282049050600182168061020357607f821691505b60208210811415610217576102166101bc565b5b50919050565b6106898061022c6000396000f3fe608060405234801561001057600080fd5b50600436106100575760003560e01c80632e64cec11461005c5780634f2be91f1461007a5780636057361d146100985780636f760f41146100b45780639e7a13ad146100d0575b600080fd5b610064610101565b6040516100719190610310565b60405180910390f35b61008261010b565b60405161008f9190610310565b60405180910390f35b6100b260048036038101906100ad919061036b565b610114565b005b6100ce60048036038101906100c991906104de565b610125565b005b6100ea60048036038101906100e5919061036b565b610198565b6040516100f89291906105c2565b60405180910390f35b6000600554905090565b60006002905090565b806005819055506000600590505050565b600060405180604001604052808381526020018481525090506006819080600181540180825580915050600190039060005260206000209060020201600090919091909150600082015181600001556020820151816001019080519060200190610190929190610254565b505050505050565b600681815481106101a857600080fd5b90600052602060002090600202016000915090508060000154908060010180546101d190610621565b80601f01602080910402602001604051908101604052809291908181526020018280546101fd90610621565b801561024a5780601f1061021f5761010080835404028352916020019161024a565b820191906000526020600020905b81548152906001019060200180831161022d57829003601f168201915b5050505050905082565b82805461026090610621565b90600052602060002090601f01602090048101928261028257600085556102c9565b82601f1061029b57805160ff19168380011785556102c9565b828001600101855582156102c9579182015b828111156102c85782518255916020019190600101906102ad565b5b5090506102d691906102da565b5090565b5b808211156102f35760008160009055506001016102db565b5090565b6000819050919050565b61030a816102f7565b82525050565b60006020820190506103256000830184610301565b92915050565b6000604051905090565b600080fd5b600080fd5b610348816102f7565b811461035357600080fd5b50565b6000813590506103658161033f565b92915050565b60006020828403121561038157610380610335565b5b600061038f84828501610356565b91505092915050565b600080fd5b600080fd5b6000601f19601f8301169050919050565b7f4e487b7100000000000000000000000000000000000000000000000000000000600052604160045260246000fd5b6103eb826103a2565b810181811067ffffffffffffffff8211171561040a576104096103b3565b5b80604052505050565b600061041d61032b565b905061042982826103e2565b919050565b600067ffffffffffffffff821115610449576104486103b3565b5b610452826103a2565b9050602081019050919050565b82818337600083830152505050565b600061048161047c8461042e565b610413565b90508281526020810184848401111561049d5761049c61039d565b5b6104a884828561045f565b509392505050565b600082601f8301126104c5576104c4610398565b5b81356104d584826020860161046e565b91505092915050565b600080604083850312156104f5576104f4610335565b5b600083013567ffffffffffffffff8111156105135761051261033a565b5b61051f858286016104b0565b925050602061053085828601610356565b9150509250929050565b600081519050919050565b600082825260208201905092915050565b60005b83811015610574578082015181840152602081019050610559565b83811115610583576000848401525b50505050565b60006105948261053a565b61059e8185610545565b93506105ae818560208601610556565b6105b7816103a2565b840191505092915050565b60006040820190506105d76000830185610301565b81810360208301526105e98184610589565b90509392505050565b7f4e487b7100000000000000000000000000000000000000000000000000000000600052602260045260246000fd5b6000600282049050600182168061063957607f821691505b6020821081141561064d5761064c6105f2565b5b5091905056fea26469706673582212203aa8e35622b2405d0006030bd9db800d33225c252d2ae9a0b483349bbc9eee0364736f6c63430008080033",
					"opcodes": "PUSH1 0x80 PUSH1 0x40 MSTORE PUSH1 0x1 PUSH1 0x0 DUP1 PUSH2 0x100 EXP DUP2 SLOAD DUP2 PUSH1 0xFF MUL NOT AND SWAP1 DUP4 ISZERO ISZERO MUL OR SWAP1 SSTORE POP PUSH1 0x40 MLOAD DUP1 PUSH1 0x40 ADD PUSH1 0x40 MSTORE DUP1 PUSH1 0x4 DUP2 MSTORE PUSH1 0x20 ADD PUSH32 0x4669766500000000000000000000000000000000000000000000000000000000 DUP2 MSTORE POP PUSH1 0x1 SWAP1 DUP1 MLOAD SWAP1 PUSH1 0x20 ADD SWAP1 PUSH2 0x69 SWAP3 SWAP2 SWAP1 PUSH2 0x119 JUMP JUMPDEST POP PUSH32 0xFFFFFFFFFFFFFFFFFFFFFFFFFFFFFFFFFFFFFFFFFFFFFFFFFFFFFFFFFFFFFFFB PUSH1 0x2 SSTORE PUSH20 0x895BF621E6B6189D9BC1912F9571BBB870FD8B3E PUSH1 0x3 PUSH1 0x0 PUSH2 0x100 EXP DUP2 SLOAD DUP2 PUSH20 0xFFFFFFFFFFFFFFFFFFFFFFFFFFFFFFFFFFFFFFFF MUL NOT AND SWAP1 DUP4 PUSH20 0xFFFFFFFFFFFFFFFFFFFFFFFFFFFFFFFFFFFFFFFF AND MUL OR SWAP1 SSTORE POP PUSH32 0x6361740000000000000000000000000000000000000000000000000000000000 PUSH1 0x4 SSTORE CALLVALUE DUP1 ISZERO PUSH2 0x113 JUMPI PUSH1 0x0 DUP1 REVERT JUMPDEST POP PUSH2 0x21D JUMP JUMPDEST DUP3 DUP1 SLOAD PUSH2 0x125 SWAP1 PUSH2 0x1EB JUMP JUMPDEST SWAP1 PUSH1 0x0 MSTORE PUSH1 0x20 PUSH1 0x0 KECCAK256 SWAP1 PUSH1 0x1F ADD PUSH1 0x20 SWAP1 DIV DUP2 ADD SWAP3 DUP3 PUSH2 0x147 JUMPI PUSH1 0x0 DUP6 SSTORE PUSH2 0x18E JUMP JUMPDEST DUP3 PUSH1 0x1F LT PUSH2 0x160 JUMPI DUP1 MLOAD PUSH1 0xFF NOT AND DUP4 DUP1 ADD OR DUP6 SSTORE PUSH2 0x18E JUMP JUMPDEST DUP3 DUP1 ADD PUSH1 0x1 ADD DUP6 SSTORE DUP3 ISZERO PUSH2 0x18E JUMPI SWAP2 DUP3 ADD JUMPDEST DUP3 DUP2 GT ISZERO PUSH2 0x18D JUMPI DUP3 MLOAD DUP3 SSTORE SWAP2 PUSH1 0x20 ADD SWAP2 SWAP1 PUSH1 0x1 ADD SWAP1 PUSH2 0x172 JUMP JUMPDEST JUMPDEST POP SWAP1 POP PUSH2 0x19B SWAP2 SWAP1 PUSH2 0x19F JUMP JUMPDEST POP SWAP1 JUMP JUMPDEST JUMPDEST DUP1 DUP3 GT ISZERO PUSH2 0x1B8 JUMPI PUSH1 0x0 DUP2 PUSH1 0x0 SWAP1 SSTORE POP PUSH1 0x1 ADD PUSH2 0x1A0 JUMP JUMPDEST POP SWAP1 JUMP JUMPDEST PUSH32 0x4E487B7100000000000000000000000000000000000000000000000000000000 PUSH1 0x0 MSTORE PUSH1 0x22 PUSH1 0x4 MSTORE PUSH1 0x24 PUSH1 0x0 REVERT JUMPDEST PUSH1 0x0 PUSH1 0x2 DUP3 DIV SWAP1 POP PUSH1 0x1 DUP3 AND DUP1 PUSH2 0x203 JUMPI PUSH1 0x7F DUP3 AND SWAP2 POP JUMPDEST PUSH1 0x20 DUP3 LT DUP2 EQ ISZERO PUSH2 0x217 JUMPI PUSH2 0x216 PUSH2 0x1BC JUMP JUMPDEST JUMPDEST POP SWAP2 SWAP1 POP JUMP JUMPDEST PUSH2 0x689 DUP1 PUSH2 0x22C PUSH1 0x0 CODECOPY PUSH1 0x0 RETURN INVALID PUSH1 0x80 PUSH1 0x40 MSTORE CALLVALUE DUP1 ISZERO PUSH2 0x10 JUMPI PUSH1 0x0 DUP1 REVERT JUMPDEST POP PUSH1 0x4 CALLDATASIZE LT PUSH2 0x57 JUMPI PUSH1 0x0 CALLDATALOAD PUSH1 0xE0 SHR DUP1 PUSH4 0x2E64CEC1 EQ PUSH2 0x5C JUMPI DUP1 PUSH4 0x4F2BE91F EQ PUSH2 0x7A JUMPI DUP1 PUSH4 0x6057361D EQ PUSH2 0x98 JUMPI DUP1 PUSH4 0x6F760F41 EQ PUSH2 0xB4 JUMPI DUP1 PUSH4 0x9E7A13AD EQ PUSH2 0xD0 JUMPI JUMPDEST PUSH1 0x0 DUP1 REVERT JUMPDEST PUSH2 0x64 PUSH2 0x101 JUMP JUMPDEST PUSH1 0x40 MLOAD PUSH2 0x71 SWAP2 SWAP1 PUSH2 0x310 JUMP JUMPDEST PUSH1 0x40 MLOAD DUP1 SWAP2 SUB SWAP1 RETURN JUMPDEST PUSH2 0x82 PUSH2 0x10B JUMP JUMPDEST PUSH1 0x40 MLOAD PUSH2 0x8F SWAP2 SWAP1 PUSH2 0x310 JUMP JUMPDEST PUSH1 0x40 MLOAD DUP1 SWAP2 SUB SWAP1 RETURN JUMPDEST PUSH2 0xB2 PUSH1 0x4 DUP1 CALLDATASIZE SUB DUP2 ADD SWAP1 PUSH2 0xAD SWAP2 SWAP1 PUSH2 0x36B JUMP JUMPDEST PUSH2 0x114 JUMP JUMPDEST STOP JUMPDEST PUSH2 0xCE PUSH1 0x4 DUP1 CALLDATASIZE SUB DUP2 ADD SWAP1 PUSH2 0xC9 SWAP2 SWAP1 PUSH2 0x4DE JUMP JUMPDEST PUSH2 0x125 JUMP JUMPDEST STOP JUMPDEST PUSH2 0xEA PUSH1 0x4 DUP1 CALLDATASIZE SUB DUP2 ADD SWAP1 PUSH2 0xE5 SWAP2 SWAP1 PUSH2 0x36B JUMP JUMPDEST PUSH2 0x198 JUMP JUMPDEST PUSH1 0x40 MLOAD PUSH2 0xF8 SWAP3 SWAP2 SWAP1 PUSH2 0x5C2 JUMP JUMPDEST PUSH1 0x40 MLOAD DUP1 SWAP2 SUB SWAP1 RETURN JUMPDEST PUSH1 0x0 PUSH1 0x5 SLOAD SWAP1 POP SWAP1 JUMP JUMPDEST PUSH1 0x0 PUSH1 0x2 SWAP1 POP SWAP1 JUMP JUMPDEST DUP1 PUSH1 0x5 DUP2 SWAP1 SSTORE POP PUSH1 0x0 PUSH1 0x5 SWAP1 POP POP POP JUMP JUMPDEST PUSH1 0x0 PUSH1 0x40 MLOAD DUP1 PUSH1 0x40 ADD PUSH1 0x40 MSTORE DUP1 DUP4 DUP2 MSTORE PUSH1 0x20 ADD DUP5 DUP2 MSTORE POP SWAP1 POP PUSH1 0x6 DUP2 SWAP1 DUP1 PUSH1 0x1 DUP2 SLOAD ADD DUP1 DUP3 SSTORE DUP1 SWAP2 POP POP PUSH1 0x1 SWAP1 SUB SWAP1 PUSH1 0x0 MSTORE PUSH1 0x20 PUSH1 0x0 KECCAK256 SWAP1 PUSH1 0x2 MUL ADD PUSH1 0x0 SWAP1 SWAP2 SWAP1 SWAP2 SWAP1 SWAP2 POP PUSH1 0x0 DUP3 ADD MLOAD DUP2 PUSH1 0x0 ADD SSTORE PUSH1 0x20 DUP3 ADD MLOAD DUP2 PUSH1 0x1 ADD SWAP1 DUP1 MLOAD SWAP1 PUSH1 0x20 ADD SWAP1 PUSH2 0x190 SWAP3 SWAP2 SWAP1 PUSH2 0x254 JUMP JUMPDEST POP POP POP POP POP POP JUMP JUMPDEST PUSH1 0x6 DUP2 DUP2 SLOAD DUP2 LT PUSH2 0x1A8 JUMPI PUSH1 0x0 DUP1 REVERT JUMPDEST SWAP1 PUSH1 0x0 MSTORE PUSH1 0x20 PUSH1 0x0 KECCAK256 SWAP1 PUSH1 0x2 MUL ADD PUSH1 0x0 SWAP2 POP SWAP1 POP DUP1 PUSH1 0x0 ADD SLOAD SWAP1 DUP1 PUSH1 0x1 ADD DUP1 SLOAD PUSH2 0x1D1 SWAP1 PUSH2 0x621 JUMP JUMPDEST DUP1 PUSH1 0x1F ADD PUSH1 0x20 DUP1 SWAP2 DIV MUL PUSH1 0x20 ADD PUSH1 0x40 MLOAD SWAP1 DUP2 ADD PUSH1 0x40 MSTORE DUP1 SWAP3 SWAP2 SWAP1 DUP2 DUP2 MSTORE PUSH1 0x20 ADD DUP3 DUP1 SLOAD PUSH2 0x1FD SWAP1 PUSH2 0x621 JUMP JUMPDEST DUP1 ISZERO PUSH2 0x24A JUMPI DUP1 PUSH1 0x1F LT PUSH2 0x21F JUMPI PUSH2 0x100 DUP1 DUP4 SLOAD DIV MUL DUP4 MSTORE SWAP2 PUSH1 0x20 ADD SWAP2 PUSH2 0x24A JUMP JUMPDEST DUP3 ADD SWAP2 SWAP1 PUSH1 0x0 MSTORE PUSH1 0x20 PUSH1 0x0 KECCAK256 SWAP1 JUMPDEST DUP2 SLOAD DUP2 MSTORE SWAP1 PUSH1 0x1 ADD SWAP1 PUSH1 0x20 ADD DUP1 DUP4 GT PUSH2 0x22D JUMPI DUP3 SWAP1 SUB PUSH1 0x1F AND DUP3 ADD SWAP2 JUMPDEST POP POP POP POP POP SWAP1 POP DUP3 JUMP JUMPDEST DUP3 DUP1 SLOAD PUSH2 0x260 SWAP1 PUSH2 0x621 JUMP JUMPDEST SWAP1 PUSH1 0x0 MSTORE PUSH1 0x20 PUSH1 0x0 KECCAK256 SWAP1 PUSH1 0x1F ADD PUSH1 0x20 SWAP1 DIV DUP2 ADD SWAP3 DUP3 PUSH2 0x282 JUMPI PUSH1 0x0 DUP6 SSTORE PUSH2 0x2C9 JUMP JUMPDEST DUP3 PUSH1 0x1F LT PUSH2 0x29B JUMPI DUP1 MLOAD PUSH1 0xFF NOT AND DUP4 DUP1 ADD OR DUP6 SSTORE PUSH2 0x2C9 JUMP JUMPDEST DUP3 DUP1 ADD PUSH1 0x1 ADD DUP6 SSTORE DUP3 ISZERO PUSH2 0x2C9 JUMPI SWAP2 DUP3 ADD JUMPDEST DUP3 DUP2 GT ISZERO PUSH2 0x2C8 JUMPI DUP3 MLOAD DUP3 SSTORE SWAP2 PUSH1 0x20 ADD SWAP2 SWAP1 PUSH1 0x1 ADD SWAP1 PUSH2 0x2AD JUMP JUMPDEST JUMPDEST POP SWAP1 POP PUSH2 0x2D6 SWAP2 SWAP1 PUSH2 0x2DA JUMP JUMPDEST POP SWAP1 JUMP JUMPDEST JUMPDEST DUP1 DUP3 GT ISZERO PUSH2 0x2F3 JUMPI PUSH1 0x0 DUP2 PUSH1 0x0 SWAP1 SSTORE POP PUSH1 0x1 ADD PUSH2 0x2DB JUMP JUMPDEST POP SWAP1 JUMP JUMPDEST PUSH1 0x0 DUP2 SWAP1 POP SWAP2 SWAP1 POP JUMP JUMPDEST PUSH2 0x30A DUP2 PUSH2 0x2F7 JUMP JUMPDEST DUP3 MSTORE POP POP JUMP JUMPDEST PUSH1 0x0 PUSH1 0x20 DUP3 ADD SWAP1 POP PUSH2 0x325 PUSH1 0x0 DUP4 ADD DUP5 PUSH2 0x301 JUMP JUMPDEST SWAP3 SWAP2 POP POP JUMP JUMPDEST PUSH1 0x0 PUSH1 0x40 MLOAD SWAP1 POP SWAP1 JUMP JUMPDEST PUSH1 0x0 DUP1 REVERT JUMPDEST PUSH1 0x0 DUP1 REVERT JUMPDEST PUSH2 0x348 DUP2 PUSH2 0x2F7 JUMP JUMPDEST DUP2 EQ PUSH2 0x353 JUMPI PUSH1 0x0 DUP1 REVERT JUMPDEST POP JUMP JUMPDEST PUSH1 0x0 DUP2 CALLDATALOAD SWAP1 POP PUSH2 0x365 DUP2 PUSH2 0x33F JUMP JUMPDEST SWAP3 SWAP2 POP POP JUMP JUMPDEST PUSH1 0x0 PUSH1 0x20 DUP3 DUP5 SUB SLT ISZERO PUSH2 0x381 JUMPI PUSH2 0x380 PUSH2 0x335 JUMP JUMPDEST JUMPDEST PUSH1 0x0 PUSH2 0x38F DUP5 DUP3 DUP6 ADD PUSH2 0x356 JUMP JUMPDEST SWAP2 POP POP SWAP3 SWAP2 POP POP JUMP JUMPDEST PUSH1 0x0 DUP1 REVERT JUMPDEST PUSH1 0x0 DUP1 REVERT JUMPDEST PUSH1 0x0 PUSH1 0x1F NOT PUSH1 0x1F DUP4 ADD AND SWAP1 POP SWAP2 SWAP1 POP JUMP JUMPDEST PUSH32 0x4E487B7100000000000000000000000000000000000000000000000000000000 PUSH1 0x0 MSTORE PUSH1 0x41 PUSH1 0x4 MSTORE PUSH1 0x24 PUSH1 0x0 REVERT JUMPDEST PUSH2 0x3EB DUP3 PUSH2 0x3A2 JUMP JUMPDEST DUP2 ADD DUP2 DUP2 LT PUSH8 0xFFFFFFFFFFFFFFFF DUP3 GT OR ISZERO PUSH2 0x40A JUMPI PUSH2 0x409 PUSH2 0x3B3 JUMP JUMPDEST JUMPDEST DUP1 PUSH1 0x40 MSTORE POP POP POP JUMP JUMPDEST PUSH1 0x0 PUSH2 0x41D PUSH2 0x32B JUMP JUMPDEST SWAP1 POP PUSH2 0x429 DUP3 DUP3 PUSH2 0x3E2 JUMP JUMPDEST SWAP2 SWAP1 POP JUMP JUMPDEST PUSH1 0x0 PUSH8 0xFFFFFFFFFFFFFFFF DUP3 GT ISZERO PUSH2 0x449 JUMPI PUSH2 0x448 PUSH2 0x3B3 JUMP JUMPDEST JUMPDEST PUSH2 0x452 DUP3 PUSH2 0x3A2 JUMP JUMPDEST SWAP1 POP PUSH1 0x20 DUP2 ADD SWAP1 POP SWAP2 SWAP1 POP JUMP JUMPDEST DUP3 DUP2 DUP4 CALLDATACOPY PUSH1 0x0 DUP4 DUP4 ADD MSTORE POP POP POP JUMP JUMPDEST PUSH1 0x0 PUSH2 0x481 PUSH2 0x47C DUP5 PUSH2 0x42E JUMP JUMPDEST PUSH2 0x413 JUMP JUMPDEST SWAP1 POP DUP3 DUP2 MSTORE PUSH1 0x20 DUP2 ADD DUP5 DUP5 DUP5 ADD GT ISZERO PUSH2 0x49D JUMPI PUSH2 0x49C PUSH2 0x39D JUMP JUMPDEST JUMPDEST PUSH2 0x4A8 DUP5 DUP3 DUP6 PUSH2 0x45F JUMP JUMPDEST POP SWAP4 SWAP3 POP POP POP JUMP JUMPDEST PUSH1 0x0 DUP3 PUSH1 0x1F DUP4 ADD SLT PUSH2 0x4C5 JUMPI PUSH2 0x4C4 PUSH2 0x398 JUMP JUMPDEST JUMPDEST DUP2 CALLDATALOAD PUSH2 0x4D5 DUP5 DUP3 PUSH1 0x20 DUP7 ADD PUSH2 0x46E JUMP JUMPDEST SWAP2 POP POP SWAP3 SWAP2 POP POP JUMP JUMPDEST PUSH1 0x0 DUP1 PUSH1 0x40 DUP4 DUP6 SUB SLT ISZERO PUSH2 0x4F5 JUMPI PUSH2 0x4F4 PUSH2 0x335 JUMP JUMPDEST JUMPDEST PUSH1 0x0 DUP4 ADD CALLDATALOAD PUSH8 0xFFFFFFFFFFFFFFFF DUP2 GT ISZERO PUSH2 0x513 JUMPI PUSH2 0x512 PUSH2 0x33A JUMP JUMPDEST JUMPDEST PUSH2 0x51F DUP6 DUP3 DUP7 ADD PUSH2 0x4B0 JUMP JUMPDEST SWAP3 POP POP PUSH1 0x20 PUSH2 0x530 DUP6 DUP3 DUP7 ADD PUSH2 0x356 JUMP JUMPDEST SWAP2 POP POP SWAP3 POP SWAP3 SWAP1 POP JUMP JUMPDEST PUSH1 0x0 DUP2 MLOAD SWAP1 POP SWAP2 SWAP1 POP JUMP JUMPDEST PUSH1 0x0 DUP3 DUP3 MSTORE PUSH1 0x20 DUP3 ADD SWAP1 POP SWAP3 SWAP2 POP POP JUMP JUMPDEST PUSH1 0x0 JUMPDEST DUP4 DUP2 LT ISZERO PUSH2 0x574 JUMPI DUP1 DUP3 ADD MLOAD DUP2 DUP5 ADD MSTORE PUSH1 0x20 DUP2 ADD SWAP1 POP PUSH2 0x559 JUMP JUMPDEST DUP4 DUP2 GT ISZERO PUSH2 0x583 JUMPI PUSH1 0x0 DUP5 DUP5 ADD MSTORE JUMPDEST POP POP POP POP JUMP JUMPDEST PUSH1 0x0 PUSH2 0x594 DUP3 PUSH2 0x53A JUMP JUMPDEST PUSH2 0x59E DUP2 DUP6 PUSH2 0x545 JUMP JUMPDEST SWAP4 POP PUSH2 0x5AE DUP2 DUP6 PUSH1 0x20 DUP7 ADD PUSH2 0x556 JUMP JUMPDEST PUSH2 0x5B7 DUP2 PUSH2 0x3A2 JUMP JUMPDEST DUP5 ADD SWAP2 POP POP SWAP3 SWAP2 POP POP JUMP JUMPDEST PUSH1 0x0 PUSH1 0x40 DUP3 ADD SWAP1 POP PUSH2 0x5D7 PUSH1 0x0 DUP4 ADD DUP6 PUSH2 0x301 JUMP JUMPDEST DUP2 DUP2 SUB PUSH1 0x20 DUP4 ADD MSTORE PUSH2 0x5E9 DUP2 DUP5 PUSH2 0x589 JUMP JUMPDEST SWAP1 POP SWAP4 SWAP3 POP POP POP JUMP JUMPDEST PUSH32 0x4E487B7100000000000000000000000000000000000000000000000000000000 PUSH1 0x0 MSTORE PUSH1 0x22 PUSH1 0x4 MSTORE PUSH1 0x24 PUSH1 0x0 REVERT JUMPDEST PUSH1 0x0 PUSH1 0x2 DUP3 DIV SWAP1 POP PUSH1 0x1 DUP3 AND DUP1 PUSH2 0x639 JUMPI PUSH1 0x7F DUP3 AND SWAP2 POP JUMPDEST PUSH1 0x20 DUP3 LT DUP2 EQ ISZERO PUSH2 0x64D JUMPI PUSH2 0x64C PUSH2 0x5F2 JUMP JUMPDEST JUMPDEST POP SWAP2 SWAP1 POP JUMP INVALID LOG2 PUSH5 0x6970667358 0x22 SLT KECCAK256 GASPRICE 0xA8 0xE3 JUMP 0x22 0xB2 BLOCKHASH 0x5D STOP MOD SUB SIGNEXTEND 0xD9 0xDB DUP1 0xD CALLER 0x22 0x5C 0x25 0x2D 0x2A 0xE9 LOG0 0xB4 DUP4 CALLVALUE SWAP12 0xBC SWAP15 0xEE SUB PUSH5 0x736F6C6343 STOP ADDMOD ADDMOD STOP CALLER "
				},
				"gasEstimates": {
					"creation": {
						"codeDepositCost": "334600",
						"executionCost": "infinite",
						"totalCost": "infinite"
					},
					"external": {
						"add()": "337",
						"addPerson(string,uint256)": "infinite",
						"people(uint256)": "infinite",
						"retrieve()": "2415",
						"store(uint256)": "22555"
					}
				},
				"methodIdentifiers": {
					"add()": "4f2be91f",
					"addPerson(string,uint256)": "6f760f41",
					"people(uint256)": "9e7a13ad",
					"retrieve()": "2e64cec1",
					"store(uint256)": "6057361d"
				}
			},
			"storageLayout": {
				"storage": [
					{
						"astId": 4,
						"contract": "contracts/SimpleStorage.sol:SimpleStorage",
						"label": "hasFavoriteNumber",
						"offset": 0,
						"slot": "0",
						"type": "t_bool"
					},
					{
						"astId": 7,
						"contract": "contracts/SimpleStorage.sol:SimpleStorage",
						"label": "favoriteNumberInText",
						"offset": 0,
						"slot": "1",
						"type": "t_string_storage"
					},
					{
						"astId": 11,
						"contract": "contracts/SimpleStorage.sol:SimpleStorage",
						"label": "favoriteInt",
						"offset": 0,
						"slot": "2",
						"type": "t_int256"
					},
					{
						"astId": 14,
						"contract": "contracts/SimpleStorage.sol:SimpleStorage",
						"label": "myaddress",
						"offset": 0,
						"slot": "3",
						"type": "t_address"
					},
					{
						"astId": 17,
						"contract": "contracts/SimpleStorage.sol:SimpleStorage",
						"label": "favoriteBytes",
						"offset": 0,
						"slot": "4",
						"type": "t_bytes32"
					},
					{
						"astId": 19,
						"contract": "contracts/SimpleStorage.sol:SimpleStorage",
						"label": "favoriteNumber",
						"offset": 0,
						"slot": "5",
						"type": "t_uint256"
					},
					{
						"astId": 61,
						"contract": "contracts/SimpleStorage.sol:SimpleStorage",
						"label": "people",
						"offset": 0,
						"slot": "6",
						"type": "t_array(t_struct(People)57_storage)dyn_storage"
					}
				],
				"types": {
					"t_address": {
						"encoding": "inplace",
						"label": "address",
						"numberOfBytes": "20"
					},
					"t_array(t_struct(People)57_storage)dyn_storage": {
						"base": "t_struct(People)57_storage",
						"encoding": "dynamic_array",
						"label": "struct SimpleStorage.People[]",
						"numberOfBytes": "32"
					},
					"t_bool": {
						"encoding": "inplace",
						"label": "bool",
						"numberOfBytes": "1"
					},
					"t_bytes32": {
						"encoding": "inplace",
						"label": "bytes32",
						"numberOfBytes": "32"
					},
					"t_int256": {
						"encoding": "inplace",
						"label": "int256",
						"numberOfBytes": "32"
					},
					"t_string_storage": {
						"encoding": "bytes",
						"label": "string",
						"numberOfBytes": "32"
					},
					"t_struct(People)57_storage": {
						"encoding": "inplace",
						"label": "struct SimpleStorage.People",
						"members": [
							{
								"astId": 54,
								"contract": "contracts/SimpleStorage.sol:SimpleStorage",
								"label": "favoriteNumber",
								"offset": 0,
								"slot": "0",
								"type": "t_uint256"
							},
							{
								"astId": 56,
								"contract": "contracts/SimpleStorage.sol:SimpleStorage",
								"label": "name",
								"offset": 0,
								"slot": "1",
								"type": "t_string_storage"
							}
						],
						"numberOfBytes": "64"
					},
					"t_uint256": {
						"encoding": "inplace",
						"label": "uint256",
						"numberOfBytes": "32"
					}
				}
			},
			"userdoc": {
				"kind": "user",
				"methods": {},
				"version": 1
			}
		}
	}
}